:100000000C9462000C948A000C948A000C948A0070
:100010000C948A000C948A000C948A000C948A0038
:100020000C948A000C948A000C948A000C948A0028
:100030000C948A000C948A000C948A000C948A0018
:100040000C9427010C948A000C94B9020C940703B9
:100050000C948A000C948A000C948A000C948A00F8
:100060000C948A000C948A000000000024002700F1
:100070002A0000000000250028002B0000000000DE
:1000800023002600290004040404040404040202DA
:100090000202020203030303030301020408102007
:1000A0004080010204081020010204081020000012
:1000B0000007000201000003040600000000000029
:1000C0000000730411241FBECFEFD8E0DEBFCDBF08
:1000D00011E0A0E0B1E0E8E5FAE002C005900D9281
:1000E000A232B107D9F711E0A2E2B1E001C01D923E
:1000F000A73DB107E1F710E0C4ECD0E004C02297BF
:10010000FE010E942605C23CD107C9F70E94C9041E
:100110000C942A050C940000CF92DF92EF92FF928C
:100120000F931F93CF93DF93809122010E940302CC
:100130006C01809100010E9403027C018091020108
:100140000E9403028C01809104010E940302EC01D1
:1001500084EFC81681E0D80624F08091060160E0A3
:1001600003C08091060161E00E94640284EFE816FA
:1001700081E0F80624F08091080160E003C08091DE
:10018000080161E00E94640281E0043F180724F046
:1001900080910A0160E003C080910A0161E00E9441
:1001A000640281E0C43FD80724F080910C0160E034
:1001B00003C080910C0161E00E94640284EFC816C4
:1001C00081E0D80674F484EFE81681E0F8064CF478
:1001D000045F114034F460E0C45FD1401CF461E07E
:1001E00001C060E080910E010E94640260E971E04C
:1001F00080E090E00E946F01DF91CF911F910F91FD
:10020000FF90EF90DF90CF9008958091060161E01C
:100210000E9425028091080161E00E9425028091E0
:100220000A0161E00E94250280910C0161E00E94B8
:10023000250280910E0161E00E94250285EB91E08C
:1002400040E855E260E070E00E94420308951F928A
:100250000F920FB60F9211242F933F938F939F937A
:10026000AF93BF938091280190912901A0912A0119
:10027000B0912B0130912C010196A11DB11D232FAE
:100280002D5F2D3720F02D570196A11DB11D209314
:100290002C018093280190932901A0932A01B09307
:1002A0002B018091240190912501A0912601B0910C
:1002B00027010196A11DB11D809324019093250172
:1002C000A0932601B0932701BF91AF919F918F9189
:1002D0003F912F910F900FBE0F901F9018959B018B
:1002E000AC017FB7F8948091240190912501A091F1
:1002F0002601B091270166B5A89B05C06F3F19F094
:100300000196A11DB11D7FBFBA2FA92F982F882755
:10031000860F911DA11DB11D62E0880F991FAA1FB4
:10032000BB1F6A95D1F7BC012DC0FFB7F89480912F
:10033000240190912501A0912601B0912701E6B5F5
:10034000A89B05C0EF3F19F00196A11DB11DFFBF8D
:10035000BA2FA92F982F88278E0F911DA11DB11D8F
:10036000E2E0880F991FAA1FBB1FEA95D1F7861BF1
:10037000970B885E9340C8F2215030404040504077
:1003800068517C4F211531054105510571F60895DD
:10039000789484B5826084BD84B5816084BD85B560
:1003A000826085BD85B5816085BDEEE6F0E0808127
:1003B00081608083E1E8F0E0108280818260808348
:1003C000808181608083E0E8F0E0808181608083CB
:1003D000E1EBF0E0808184608083E0EBF0E08081FD
:1003E00081608083EAE7F0E080818460808380819F
:1003F0008260808380818160808380818068808347
:100400001092C1000895982F8E3008F09E5097707A
:10041000809110018295880F880F807C892B8093B2
:100420007C0080917A00806480937A0080917A00C9
:1004300086FDFCCF2091780040917900942F80E0D8
:1004400030E0282B392BC9010895CF93DF93482F33
:1004500050E0CA0186569F4FFC0134914A575F4FC6
:10046000FA018491882369F190E0880F991FFC01BB
:10047000E859FF4FA591B491FC01EE58FF4FC5918B
:10048000D491662351F42FB7F8948C91932F9095C3
:1004900089238C93888189230BC0623061F42FB744
:1004A000F8948C91932F909589238C938881832B3A
:1004B00088832FBF06C09FB7F8948C91832B8C93B1
:1004C0009FBFDF91CF910895482F50E0CA01825518
:1004D0009F4FFC012491CA0186569F4FFC019491C5
:1004E0004A575F4FFA013491332309F440C0222365
:1004F00051F1233071F0243028F42130A1F0223062
:1005000011F514C02630B1F02730C1F02430D9F4F1
:1005100004C0809180008F7703C0809180008F7D20
:100520008093800010C084B58F7702C084B58F7D22
:1005300084BD09C08091B0008F7703C08091B00066
:100540008F7D8093B000E32FF0E0EE0FFF1FEE5899
:10055000FF4FA591B4912FB7F894662321F48C91A5
:100560009095892302C08C91892B8C932FBF08957D
:1005700008951F920F920FB60F9211242F933F935D
:100580004F938F939F93EF93FF938091C00082FDD1
:100590001DC04091C60020916D0130916E012F5F0A
:1005A0003F4F2F73307080916F0190917001281729
:1005B000390771F0E0916D01F0916E01E35DFE4F3E
:1005C000408330936E0120936D0102C08091C6007C
:1005D000FF91EF919F918F914F913F912F910F90AC
:1005E0000FBE0F901F901895E091C101F091C201CC
:1005F000E05CFF4F8191919120813181821B930BAF
:100600008F739070892B11F00E94B80208951F9289
:100610000F920FB60F9211242F933F938F939F93B6
:10062000EF93FF932091B1013091B2018091B3011A
:100630009091B4012817390731F48091C1008F7D62
:100640008093C10014C0E091B301F091B401EF5860
:10065000FE4F20818091B3019091B40101968F7378
:1006600090709093B4018093B3012093C600FF91E2
:10067000EF919F918F913F912F910F900FBE0F900F
:100680001F901895AF92BF92DF92EF92FF920F9357
:100690001F93CF93DF93EC017A018B01DD2440306F
:1006A00081EE580780E0680780E0780711F0DD24CC
:1006B000D39491E0A92EB12CEC89FD89DD2069F05D
:1006C000C50108A002C0880F991F0A94E2F7808331
:1006D00060E079E08DE390E005C0108260E874E8A6
:1006E0008EE190E0A80197010E9402052150304060
:1006F00040405040569547953795279580E12030EA
:10070000380720F0DD2011F0DD24D6CFE889F98903
:100710003083EA89FB89208319A2EE89FF89408111
:1007200021E030E0C9010C8C02C0880F991F0A94A7
:10073000E2F7482B4083EE89FF894081C9010D8C87
:1007400002C0880F991F0A94E2F7482B4083EE8974
:10075000FF894081C9010E8C02C0880F991F0A943D
:10076000E2F7482B4083EE89FF8980810F8C02C01D
:10077000220F331F0A94E2F7209528232083DF916C
:10078000CF911F910F91FF90EF90DF90BF90AF90AE
:100790000895DC011C96ED91FC911D97E05CFF4FE4
:1007A0002191319180819181281B390B2F733070F9
:1007B000C9010895DC011C96ED91FC911D97E05C48
:1007C000FF4F20813181E054F040DF01AE5BBF4F2D
:1007D0008D919C9111972817390719F42FEF3FEF4E
:1007E00007C08D919C91E80FF91F8081282F30E080
:1007F000C9010895DC011C96ED91FC911D97E05C08
:10080000FF4F20813181E054F040DF01AE5BBF4FEC
:100810008D919C9111972817390719F42FEF3FEF0D
:1008200010C08D919C911197E80FF91F20818D9137
:100830009C91119701968F73907011969C938E9353
:1008400030E0C9010895DC0191968C91919788233D
:1008500039F05496ED91FC915597808186FFF9CF40
:1008600091961C920895CF93DF93EC01EE85FF855E
:10087000E05CFF4F20813181E054F0402F5F3F4F1B
:100880002F733070DF01AE5BBF4F8D919C9111973C
:1008900028173907D1F3E05CFF4F80819181E05444
:1008A000F040E80FF91F6083EE85FF85E05CFF4FA5
:1008B00031832083EE89FF89208181E090E00F8CD5
:1008C00002C0880F991F0A94E2F7282B208381E049
:1008D00089A3EC89FD8980818064808381E090E038
:1008E000DF91CF9108951092B8011092B70188EE70
:1008F00093E0A0E0B0E08093B9019093BA01A09397
:10090000BB01B093BC0185E191E09093B601809367
:10091000B5018DE291E09093C2018093C10181E71E
:1009200091E09093C4018093C30185EC90E0909393
:10093000C6018093C50184EC90E09093C801809338
:10094000C70180EC90E09093CA018093C90181ECCB
:1009500090E09093CC018093CB0182EC90E0909357
:10096000CE018093CD0186EC90E09093D0018093EE
:10097000CF0184E08093D10183E08093D20187E0AE
:100980008093D30185E08093D40181E08093D501E9
:100990000895CF93DF930E94C8010E940501C4EF20
:1009A000D2E00E948C002097E1F30E94F402F9CF7C
:1009B000CF92DF92EF92FF920F931F93CF93DF932B
:1009C0007C016B018A01C0E0D0E00FC0D6016D91BF
:1009D0006D01D701ED91FC910190F081E02DC701EF
:1009E0000995C80FD91F015010400115110571F765
:1009F000CE01DF91CF911F910F91FF90EF90DF908B
:100A0000CF900895A1E21A2EAA1BBB1BFD010DC0B9
:100A1000AA1FBB1FEE1FFF1FA217B307E407F507AE
:100A200020F0A21BB30BE40BF50B661F771F881F8A
:100A3000991F1A9469F760957095809590959B0120
:100A4000AC01BD01CF010895EE0FFF1F0590F49199
:080A5000E02D0994F894FFCF9A
:100A58000100020003000200030004000500080072
:100A680001000000003304D804C903FA03DA0323A1
:020A7800040078
:00000001FF
